{
  "abi": [
    {
      "inputs": [],
      "name": "run",
      "outputs": [],
      "stateMutability": "nonpayable",
      "type": "function"
    }
  ],
  "bytecode": {
    "object": "0x608060405234801561001057600080fd5b5061045f806100206000396000f3fe608060405234801561001057600080fd5b506004361061002b5760003560e01c8063c040622614610030575b600080fd5b61003861003a565b005b6000604051610048906100d7565b604051809103906000f080158015610064573d6000803e3d6000fd5b506040516392135b1760e01b8152600a60048201529091506001600160a01b038216906392135b17906024016020604051808303816000875af11580156100af573d6000803e3d6000fd5b505050506040513d601f19601f820116820180604052508101906100d391906100e4565b5050565b61032c806100fe83390190565b6000602082840312156100f657600080fd5b505191905056fe608060405234801561001057600080fd5b5061030c806100206000396000f3fe608060405234801561001057600080fd5b50600436106100365760003560e01c806392135b171461003b578063c3da42b814610060575b600080fd5b61004e6100493660046101c3565b610069565b60405190815260200160405180910390f35b61004e60005481565b6000610076600283610209565b6001600160801b031660000361009857610091600283610245565b91506100ce565b6100a382600361026b565b6100ae906001610296565b91506100bb600283610209565b6001600160801b0316156100ce57600080fd5b816001600160801b03166000808282546100e891906102bd565b90915550600090508060056001600160801b0385161061010b5760076006610110565b600360055b60ff91821693501690506101256001836102bd565b9150600a821061013457600080fd5b6008811061014157600080fd5b6007846001600160801b0316101561018857600160008082825461016591906102bd565b925050819055508160008082825461017d91906102bd565b909155506101b89050565b600260008082825461019a91906102bd565b92505081905550806000808282546101b291906102bd565b90915550505b505060005492915050565b6000602082840312156101d557600080fd5b81356001600160801b03811681146101ec57600080fd5b9392505050565b634e487b7160e01b600052601260045260246000fd5b60006001600160801b0380841680610223576102236101f3565b92169190910692915050565b634e487b7160e01b600052601160045260246000fd5b60006001600160801b038084168061025f5761025f6101f3565b92169190910492915050565b6001600160801b0381811683821602808216919082811461028e5761028e61022f565b505092915050565b6001600160801b038181168382160190808211156102b6576102b661022f565b5092915050565b808201808211156102d0576102d061022f565b9291505056fea2646970667358221220144e7b142fa50c8836b3e8d512b81e8298f1f98f8f0f2f65b83b4cf1e4b57ae364736f6c63430008110033a2646970667358221220cc811e319cab8465cd984d4af0c0133df217050363dac8eaf3d53de8a701b26f64736f6c63430008110033",
    "linkReferences": {}
  },
  "methodIdentifiers": {
    "run()": "c0406226"
  },
  "id": 0
}