{
  "abi": [
    {
      "inputs": [
        {
          "internalType": "uint128",
          "name": "x",
          "type": "uint128"
        }
      ],
      "name": "b5",
      "outputs": [
        {
          "internalType": "uint256",
          "name": "",
          "type": "uint256"
        }
      ],
      "stateMutability": "nonpayable",
      "type": "function"
    },
    {
      "inputs": [],
      "name": "c",
      "outputs": [
        {
          "internalType": "uint256",
          "name": "",
          "type": "uint256"
        }
      ],
      "stateMutability": "view",
      "type": "function"
    }
  ],
  "bytecode": {
    "object": "0x608060405234801561001057600080fd5b5061030c806100206000396000f3fe608060405234801561001057600080fd5b50600436106100365760003560e01c806392135b171461003b578063c3da42b814610060575b600080fd5b61004e6100493660046101c3565b610069565b60405190815260200160405180910390f35b61004e60005481565b6000610076600283610209565b6001600160801b031660000361009857610091600283610245565b91506100ce565b6100a382600361026b565b6100ae906001610296565b91506100bb600283610209565b6001600160801b0316156100ce57600080fd5b816001600160801b03166000808282546100e891906102bd565b90915550600090508060056001600160801b0385161061010b5760076006610110565b600360055b60ff91821693501690506101256001836102bd565b9150600a821061013457600080fd5b6008811061014157600080fd5b6007846001600160801b0316101561018857600160008082825461016591906102bd565b925050819055508160008082825461017d91906102bd565b909155506101b89050565b600260008082825461019a91906102bd565b92505081905550806000808282546101b291906102bd565b90915550505b505060005492915050565b6000602082840312156101d557600080fd5b81356001600160801b03811681146101ec57600080fd5b9392505050565b634e487b7160e01b600052601260045260246000fd5b60006001600160801b0380841680610223576102236101f3565b92169190910692915050565b634e487b7160e01b600052601160045260246000fd5b60006001600160801b038084168061025f5761025f6101f3565b92169190910492915050565b6001600160801b0381811683821602808216919082811461028e5761028e61022f565b505092915050565b6001600160801b038181168382160190808211156102b6576102b661022f565b5092915050565b808201808211156102d0576102d061022f565b9291505056fea26469706673582212204f09c73b504aa1b90bc07516ecac7f1115f6514aad53829f770fd25f405acc8a64736f6c63430008110033",
    "linkReferences": {}
  },
  "methodIdentifiers": {
    "b5(uint128)": "92135b17",
    "c()": "c3da42b8"
  },
  "id": 0
}